:0A0159003F065B4F666D7D077F6F68
:100126007D6E7C00D3EF9400EE94004019D3ED94DD
:1001360000EC648094804007ED1D70F11C80EEEFAA
:060146001F70E11E80DEC7
:01014C002290
:10000300E4F508F509750A017A017B2C850A90AF9E
:100013000A7801EF08800123D8FDF50AD39408403C
:1000230003750A01E50A24FE602124FE603224FCE4
:10003300604A24077066AE08AF097C037DE81200AE
:10004300D174592FF58274013E804BAE08AF097C01
:10005300007D0A1200D174592DF58274013C80365B
:10006300AE08AF097C007D0A1200D17C007D0A1224
:1000730000D174592DF58274013C801AAE08AF0982
:100083007C007D641200D17C007D0A1200D174597A
:100093002DF58274013CF583E493F5807F647E0043
:1000A300120126E4F580EB1B70011AEB4A60030290
:1000B300000F0509E50970020508D3940FE50894BC
:0E00C30027500302000BE4F508F50902000BBC
:0300000002014DAD
:0C014D00787FE4F6D8FD75810A020003FB
:1000D100BC000BBE0029EF8DF084FFADF022E4CC13
:1000E100F875F008EF2FFFEE33FEEC33FCEE9DECDC
:1000F100984005FCEE9DFE0FD5F0E9E4CEFD22ED22
:10010100F8F5F0EE8420D21CFEADF075F008EF2F6B
:10011100FFED33FD4007985006D5F0F222C398FD5C
:050121000FD5F0EA22F9
:00000001FF
