:0A0268003F065B4F666D7D077F6F58
:0F024D00020B0000020D000102080000010AF17F
:03000B0002017A75
:10017A00C0E0C0D075D000C006758C3C758AB00549
:10018A0009E50970020508641445087023F508F5A5
:10019A0009E50E450D6019050CE50CAE0B7002055C
:1001AA000B14D3940FEE94274006750B00750C00C0
:0701BA00D006D0D0D0E032E6
:10023D00758901758C3C758AB0D2AFD2A9D28C224A
:0401F6007F0A7E00FE
:1001FA007D6E7C00D3EF9400EE94004017D3ED940B
:10020A0000EC94004007ED1D70F31C80F0EF1F70A6
:05021A00E31E80E0225C
:10021F00AE07EE54F0FDEE540FFF78010880012376
:0E022F00D8FDFFD3940840027F01EF2DFF227F
:1001C10020B50E1201F620B50830B5FDE4F50BF5AA
:1001D1000C20940E1201F62094083094FDE4F50DE4
:1001E100F50E20950F1201F62095093095FD750D3C
:0501F10000750E012263
:10009A00850A90AF0A12021F8F0AE50A540F24FE3E
:1000AA00602124FE603224FC604A24077066AE0B8D
:1000BA00AF0C7C037DE812012574682FF582740267
:1000CA003E804BAE0BAF0C7C007D0A120125746892
:1000DA002DF58274023C8036AE0BAF0C7C007D0A93
:1000EA001201257C007D0A12012574682DF582749F
:1000FA00023C801AAE0BAF0C7C007D641201257C99
:10010A00007D0A12012574682DF58274023CF5837C
:0B011A00E493F5801201F6E4F580226A
:0B025D0012023D1201C112009A80F84D
:0300000002000EED
:0C000E00787FE4F6D8FD75810E020055E5
:10012500BC000BBE0029EF8DF084FFADF022E4CCBE
:10013500F875F008EF2FFFEE33FEEC33FCEE9DEC87
:10014500984005FCEE9DFE0FD5F0E9E4CEFD22EDCD
:10015500F8F5F0EE8420D21CFEADF075F008EF2F17
:10016500FFED33FD4007985006D5F0F222C398FD08
:050175000FD5F0EA22A5
:10001A0002025DE493A3F8E493A34003F68001F29D
:10002A0008DFF48029E493A3F85407240CC8C333E7
:10003A00C4540F4420C8834004F456800146F6DFB6
:10004A00E4800B010204081020408090024DE47EF7
:10005A00019360BCA3FF543F30E509541FFEE493AB
:10006A00A360010ECF54C025E060A840B8E493A372
:10007A00FAE493A3F8E493A3C8C582C8CAC583CA9D
:10008A00F0A3C8C582C8CAC583CADFE9DEE780BE55
:01025C0000A1
:00000001FF
