:0A0210003F065B4F666D7D077F6FB0
:08021A00020A000002080000C6
:03000B0002018669
:09018600C0E0C0D075D000C00635
:10018F00758C3C758AB00509E50970020508641481
:10019F004508701DF508F509050BE50BAE0A700251
:1001AF00050A14D3940FEE94274006750A00750BB9
:0101BF00003F
:0701C000D006D0D0D0E032E0
:10020000758901758C3C758AB0D2AFD2A9D28C2287
:1001C7007D6E7C00D3EF9400EE94004019D3ED943C
:1001D70000EC648094804007ED1D70F11C80EEEF09
:0601E7001F70E11E80DE26
:0101ED0022EF
:1001EE007801EF08800123D8FDFFD3940840027FE9
:0201FE000122DC
:10000E00E4F50CF50D7B011202008B90AF0312018B
:10001E00EEAB07EB24FE602124FE603224FC604A26
:10002E0024077066AE0AAF0B7C037DE812013174B3
:10003E00102FF58274023E804BAE0AAF0B7C007D12
:10004E000A12013174102DF58274023C8036AE0A0C
:10005E00AF0B7C007D0A1201317C007D0A1201314A
:10006E0074102DF58274023C801AAE0AAF0B7C0020
:10007E007D641201317C007D0A12013174102DF560
:10008E008274023CF583E493F5807F0A7E001201B0
:07009E00C7E4F58002001821
:030000000200A556
:0C00A500787FE4F6D8FD75810D0200ECB8
:10013100BC000BBE0029EF8DF084FFADF022E4CCB2
:10014100F875F008EF2FFFEE33FEEC33FCEE9DEC7B
:10015100984005FCEE9DFE0FD5F0E9E4CEFD22EDC1
:10016100F8F5F0EE8420D21CFEADF075F008EF2F0B
:10017100FFED33FD4007985006D5F0F222C398FDFC
:050181000FD5F0EA2299
:1000B10002000EE493A3F8E493A34003F68001F257
:1000C10008DFF48029E493A3F85407240CC8C33350
:1000D100C4540F4420C8834004F456800146F6DF1F
:1000E100E4800B010204081020408090021AE47E93
:1000F100019360BCA3FF543F30E509541FFEE49314
:10010100A360010ECF54C025E060A840B8E493A3DA
:10011100FAE493A3F8E493A3C8C582C8CAC583CA05
:10012100F0A3C8C582C8CAC583CADFE9DEE780BEBD
:0102220000DB
:00000001FF
