:0A024B003F065B4F666D7D077F6F75
:0F023000020B0000020D000102080000010A018C
:03000B0002017C73
:10017C00C0E0C0D075D000C006758C3C758AB00547
:10018C0009E50970020508641445087023F508F5A3
:10019C0009E50E450D6019050CE50CAE0B7002055A
:1001AC000B14D3940FEE94274006750B00750C00BE
:0701BC00D006D0D0D0E032E4
:10022000758901758C3C758AB0D2AFD2A9D28C2267
:1001E9007D6E7C00D3EF9400EE94004017D3ED941C
:1001F90000EC94004007ED1D70F31C80F0EF1F70B8
:05020900E31E80E0226D
:10020E007801EF08800123D8FDFFD3940840027FC8
:02021E000122BB
:1001C30020B50B20B50830B5FDE4F50BF50C2094F4
:1001D30008209405E4F50DF50E2095092095067584
:0601E3000D00750E012263
:10000E00850A90AF0A12020E8F0AE50A24FE6021BD
:10001E0024FE603224FC604A24077066AE0BAF0CDF
:10002E007C037DE8120127744B2FF58274023E800B
:10003E004BAE0BAF0C7C007D0A120127744B2DF5D5
:10004E008274023C8036AE0BAF0C7C007D0A12012E
:10005E00277C007D0A120127744B2DF58274023C19
:10006E00801AAE0BAF0C7C007D641201277C007DE4
:10007E000A120127744B2DF58274023CF583E4932A
:0D008E00F5807F0A7E001201E9E4F5802272
:0B0240001202201201C312000E80F811
:0300000002009B60
:0C009B00787FE4F6D8FD75810E0200E2CB
:10012700BC000BBE0029EF8DF084FFADF022E4CCBC
:10013700F875F008EF2FFFEE33FEEC33FCEE9DEC85
:10014700984005FCEE9DFE0FD5F0E9E4CEFD22EDCB
:10015700F8F5F0EE8420D21CFEADF075F008EF2F15
:10016700FFED33FD4007985006D5F0F222C398FD06
:050177000FD5F0EA22A3
:1000A700020240E493A3F8E493A34003F68001F22D
:1000B70008DFF48029E493A3F85407240CC8C3335A
:1000C700C4540F4420C8834004F456800146F6DF29
:1000D700E4800B0102040810204080900230E47E87
:1000E700019360BCA3FF543F30E509541FFEE4931E
:1000F700A360010ECF54C025E060A840B8E493A3E5
:10010700FAE493A3F8E493A3C8C582C8CAC583CA0F
:10011700F0A3C8C582C8CAC583CADFE9DEE780BEC7
:01023F0000BE
:00000001FF
