:0A0156003F065B4F666D7D077F6F6B
:100123007D6E7C00D3EF9400EE94004019D3ED94E0
:1001330000EC648094804007ED1D70F11C80EEEFAD
:060143001F70E11E80DECA
:010149002293
:10000300E4F508F509750A017A017B2C850A90AF9E
:100013000A7801EF08800123D8FDF50AD39408403C
:1000230003750A01E50A24FE602124FE603224FCE4
:10003300604A24077066AE08AF097C037DE81200AE
:10004300CE74562FF58274013E804BAE08AF097C07
:10005300007D0A1200CE74562DF58274013C803661
:10006300AE08AF097C007D0A1200CE7C007D0A1227
:1000730000CE74562DF58274013C801AAE08AF0988
:100083007C007D641200CE7C007D0A1200CE745683
:100093002DF58274013CF583E493F5807F647E0043
:1000A300120123EB1B70011AEB4A600302000F05D8
:1000B30009E50970020508D3940FE5089427500356
:0B00C30002000BE4F508F50902000B39
:0300000002014AB0
:0C014A00787FE4F6D8FD75810A020003FE
:1000CE00BC000BBE0029EF8DF084FFADF022E4CC16
:1000DE00F875F008EF2FFFEE33FEEC33FCEE9DECDF
:1000EE00984005FCEE9DFE0FD5F0E9E4CEFD22ED25
:1000FE00F8F5F0EE8420D21CFEADF075F008EF2F6F
:10010E00FFED33FD4007985006D5F0F222C398FD5F
:05011E000FD5F0EA22FC
:00000001FF
